{
  "contractName": "Certs",
  "abi": [
    {
      "inputs": [],
      "payable": false,
      "stateMutability": "nonpayable",
      "type": "constructor"
    },
    {
      "constant": true,
      "inputs": [
        {
          "internalType": "uint256",
          "name": "",
          "type": "uint256"
        }
      ],
      "name": "certificates",
      "outputs": [
        {
          "internalType": "uint256",
          "name": "id",
          "type": "uint256"
        },
        {
          "internalType": "string",
          "name": "title",
          "type": "string"
        },
        {
          "internalType": "string",
          "name": "date",
          "type": "string"
        },
        {
          "internalType": "string",
          "name": "nameOfStudent",
          "type": "string"
        },
        {
          "internalType": "string",
          "name": "universityName",
          "type": "string"
        }
      ],
      "payable": false,
      "stateMutability": "view",
      "type": "function"
    },
    {
      "constant": true,
      "inputs": [],
      "name": "certsCount",
      "outputs": [
        {
          "internalType": "uint256",
          "name": "",
          "type": "uint256"
        }
      ],
      "payable": false,
      "stateMutability": "view",
      "type": "function"
    },
    {
      "constant": false,
      "inputs": [
        {
          "internalType": "string",
          "name": "_title",
          "type": "string"
        },
        {
          "internalType": "string",
          "name": "_date",
          "type": "string"
        },
        {
          "internalType": "string",
          "name": "_nameOfStudent",
          "type": "string"
        },
        {
          "internalType": "string",
          "name": "_universityName",
          "type": "string"
        }
      ],
      "name": "addCertificate",
      "outputs": [],
      "payable": false,
      "stateMutability": "nonpayable",
      "type": "function"
    }
  ],
  "bytecode": "0x60806040526000805534801561001457600080fd5b506100bc604051806040016040528060118152602001704365727469666963617465205469746c6560781b8152506040518060400160405280600a81526020016964642d6d6d2d7979797960b01b8152506040518060400160405280600b81526020016a53747564656e744e616d6560a81b8152506040518060400160405280600f81526020016e556e6976657273697479204e616d6560881b8152506100c160201b60201c565b610214565b6000805460019081018083556040805160a08101825282815260208082018a81528284018a90526060830189905260808301889052938652848152919094208451815591518051929361011c93908501929190910190610179565b5060408201518051610138916002840191602090910190610179565b5060608201518051610154916003840191602090910190610179565b5060808201518051610170916004840191602090910190610179565b50505050505050565b828054600181600116156101000203166002900490600052602060002090601f016020900481019282601f106101ba57805160ff19168380011785556101e7565b828001600101855582156101e7579182015b828111156101e75782518255916020019190600101906101cc565b506101f39291506101f7565b5090565b61021191905b808211156101f357600081556001016101fd565b90565b610849806102236000396000f3fe608060405234801561001057600080fd5b50600436106100415760003560e01c8063663b3e221461004657806372c4463814610214578063769ecd0c14610449575b600080fd5b6100636004803603602081101561005c57600080fd5b5035610463565b6040518086815260200180602001806020018060200180602001858103855289818151815260200191508051906020019080838360005b838110156100b257818101518382015260200161009a565b50505050905090810190601f1680156100df5780820380516001836020036101000a031916815260200191505b5085810384528851815288516020918201918a019080838360005b838110156101125781810151838201526020016100fa565b50505050905090810190601f16801561013f5780820380516001836020036101000a031916815260200191505b50858103835287518152875160209182019189019080838360005b8381101561017257818101518382015260200161015a565b50505050905090810190601f16801561019f5780820380516001836020036101000a031916815260200191505b50858103825286518152865160209182019188019080838360005b838110156101d25781810151838201526020016101ba565b50505050905090810190601f1680156101ff5780820380516001836020036101000a031916815260200191505b50995050505050505050505060405180910390f35b6104476004803603608081101561022a57600080fd5b810190602081018135600160201b81111561024457600080fd5b82018360208201111561025657600080fd5b803590602001918460018302840111600160201b8311171561027757600080fd5b91908080601f0160208091040260200160405190810160405280939291908181526020018383808284376000920191909152509295949360208101935035915050600160201b8111156102c957600080fd5b8201836020820111156102db57600080fd5b803590602001918460018302840111600160201b831117156102fc57600080fd5b91908080601f0160208091040260200160405190810160405280939291908181526020018383808284376000920191909152509295949360208101935035915050600160201b81111561034e57600080fd5b82018360208201111561036057600080fd5b803590602001918460018302840111600160201b8311171561038157600080fd5b91908080601f0160208091040260200160405190810160405280939291908181526020018383808284376000920191909152509295949360208101935035915050600160201b8111156103d357600080fd5b8201836020820111156103e557600080fd5b803590602001918460018302840111600160201b8311171561040657600080fd5b91908080601f0160208091040260200160405190810160405280939291908181526020018383808284376000920191909152509295506106bb945050505050565b005b610451610773565b60408051918252519081900360200190f35b600160208181526000928352604092839020805481840180548651600296821615610100026000190190911695909504601f810185900485028601850190965285855290949193929091908301828280156104ff5780601f106104d4576101008083540402835291602001916104ff565b820191906000526020600020905b8154815290600101906020018083116104e257829003601f168201915b50505060028085018054604080516020601f60001961010060018716150201909416959095049283018590048502810185019091528181529596959450909250908301828280156105915780601f1061056657610100808354040283529160200191610591565b820191906000526020600020905b81548152906001019060200180831161057457829003601f168201915b5050505060038301805460408051602060026001851615610100026000190190941693909304601f81018490048402820184019092528181529495949350908301828280156106215780601f106105f657610100808354040283529160200191610621565b820191906000526020600020905b81548152906001019060200180831161060457829003601f168201915b5050505060048301805460408051602060026001851615610100026000190190941693909304601f81018490048402820184019092528181529495949350908301828280156106b15780601f10610686576101008083540402835291602001916106b1565b820191906000526020600020905b81548152906001019060200180831161069457829003601f168201915b5050505050905085565b6000805460019081018083556040805160a08101825282815260208082018a81528284018a90526060830189905260808301889052938652848152919094208451815591518051929361071693908501929190910190610779565b5060408201518051610732916002840191602090910190610779565b506060820151805161074e916003840191602090910190610779565b506080820151805161076a916004840191602090910190610779565b50505050505050565b60005481565b828054600181600116156101000203166002900490600052602060002090601f016020900481019282601f106107ba57805160ff19168380011785556107e7565b828001600101855582156107e7579182015b828111156107e75782518255916020019190600101906107cc565b506107f39291506107f7565b5090565b61081191905b808211156107f357600081556001016107fd565b9056fea265627a7a72315820b8d11dc53e35e85ad67a7435115873dcf6f3b5c465765e57f739d03a6287d0f464736f6c63430005100032",
  "source": "pragma solidity ^0.5.0;\n\ncontract Certs {\n\n\n\nuint public certsCount =0;\n\n    struct  Certificate  {\n        uint id;\n        string title;\n        string date;\n        string nameOfStudent;\n        string universityName;\n\n    }\n\n\n\n  mapping(uint => Certificate) public certificates;\n\n  // event TaskCreated(\n  //   uint id,\n  //   string content,\n  //   bool completed\n  // );\n\n  // event TaskCompleted(\n  //   uint id,\n  //   bool completed\n  // );\n\n  constructor() public {\n    addCertificate(\"Certificate Title\",\"dd-mm-yyyy\",\"StudentName\",\"University Name\");\n  }\n\n function addCertificate(\n     \n    string memory _title,\n    string memory _date,\n    string  memory _nameOfStudent,\n    string memory _universityName\n    \n    ) public {\n\n    certsCount++;\n\n    certificates[certsCount] = Certificate(certsCount,_title,_date,_nameOfStudent,_universityName);\n\n}\n\n  // function toggleCompleted(uint _id) public {\n  //   Task memory _task = tasks[_id];\n  //   _task.completed = !_task.completed;\n  //   tasks[_id] = _task;\n  //   emit TaskCompleted(_id, _task.completed);\n  // }\n\n}\n",
  "sourcePath": "/home/htc3/Desktop/eth-certs-tracker-web/contracts/Certs.sol",
  "compiler": {
    "name": "solc",
    "version": "0.5.16+commit.9c3226ce.Emscripten.clang"
  },
  "schemaVersion": "3.4.10",
  "updatedAt": "2022-10-24T04:17:05.110Z",
  "networkType": "ethereum",
  "devdoc": {
    "methods": {}
  },
  "userdoc": {
    "methods": {}
  }
}